{
  "contractName": "Janken",
  "abi": [
    {
      "anonymous": false,
      "inputs": [
        {
          "indexed": false,
          "name": "gameId",
          "type": "bytes32"
        },
        {
          "indexed": true,
          "name": "player1",
          "type": "address"
        }
      ],
      "name": "gameCreated",
      "type": "event",
      "signature": "0x1613115500aa9a8d00879a9b48ece773ba525bb97f700dc7d51e6786b3335e0d"
    },
    {
      "anonymous": false,
      "inputs": [
        {
          "indexed": false,
          "name": "gameId",
          "type": "bytes32"
        },
        {
          "indexed": true,
          "name": "player1",
          "type": "address"
        },
        {
          "indexed": true,
          "name": "player2",
          "type": "address"
        }
      ],
      "name": "player2joined",
      "type": "event",
      "signature": "0x8717dd2bb3618ea3a837995996526a2089c9a03bd081156a6583524378d9857d"
    },
    {
      "anonymous": false,
      "inputs": [
        {
          "indexed": false,
          "name": "gameId",
          "type": "bytes32"
        },
        {
          "indexed": true,
          "name": "player1",
          "type": "address"
        },
        {
          "indexed": true,
          "name": "player2",
          "type": "address"
        }
      ],
      "name": "player1submitHand",
      "type": "event",
      "signature": "0xd3f474bf4e47bcca3c7da90a4bc1833c39bfcd8a804429f0b52db71f199c9834"
    },
    {
      "anonymous": false,
      "inputs": [
        {
          "indexed": false,
          "name": "gameId",
          "type": "bytes32"
        },
        {
          "indexed": true,
          "name": "player1",
          "type": "address"
        },
        {
          "indexed": true,
          "name": "player2",
          "type": "address"
        }
      ],
      "name": "player2submitHand",
      "type": "event",
      "signature": "0xafaef8d34cdd59cd7fb81e41de7b86cdc1d6db66dc9385327d5c2ddfce79ee2e"
    },
    {
      "anonymous": false,
      "inputs": [
        {
          "indexed": false,
          "name": "gameId",
          "type": "bytes32"
        },
        {
          "indexed": true,
          "name": "player1",
          "type": "address"
        },
        {
          "indexed": true,
          "name": "player2",
          "type": "address"
        },
        {
          "indexed": false,
          "name": "result",
          "type": "string"
        }
      ],
      "name": "gameCompleted",
      "type": "event",
      "signature": "0x186c404fd094bcb3b092353e62554c27f67707d8af92598dec31c8ad047cb8ef"
    },
    {
      "anonymous": false,
      "inputs": [
        {
          "indexed": false,
          "name": "gameId",
          "type": "bytes32"
        },
        {
          "indexed": true,
          "name": "player1",
          "type": "address"
        },
        {
          "indexed": true,
          "name": "player2",
          "type": "address"
        }
      ],
      "name": "gameClosed",
      "type": "event",
      "signature": "0x3043b01b8a6505f94584186eca0cc6b080d534f072873aa6e1bf0904826e2a26"
    },
    {
      "constant": false,
      "inputs": [],
      "name": "createGame",
      "outputs": [],
      "payable": true,
      "stateMutability": "payable",
      "type": "function",
      "signature": "0x7255d729"
    },
    {
      "constant": false,
      "inputs": [
        {
          "name": "_gameId",
          "type": "bytes32"
        }
      ],
      "name": "joinGame",
      "outputs": [],
      "payable": true,
      "stateMutability": "payable",
      "type": "function",
      "signature": "0xbf474766"
    },
    {
      "constant": false,
      "inputs": [
        {
          "name": "_gameId",
          "type": "bytes32"
        }
      ],
      "name": "getBackBetForPlayer1",
      "outputs": [],
      "payable": true,
      "stateMutability": "payable",
      "type": "function",
      "signature": "0x3e86278a"
    },
    {
      "constant": false,
      "inputs": [
        {
          "name": "_gameId",
          "type": "bytes32"
        }
      ],
      "name": "getBackBetForPlayer2",
      "outputs": [],
      "payable": true,
      "stateMutability": "payable",
      "type": "function",
      "signature": "0x9701ad6f"
    },
    {
      "constant": false,
      "inputs": [
        {
          "name": "_gameId",
          "type": "bytes32"
        },
        {
          "name": "_hand",
          "type": "uint8"
        },
        {
          "name": "_passphrase",
          "type": "string"
        }
      ],
      "name": "setHandPlayer1",
      "outputs": [],
      "payable": false,
      "stateMutability": "nonpayable",
      "type": "function",
      "signature": "0xd20c3af8"
    },
    {
      "constant": false,
      "inputs": [
        {
          "name": "_gameId",
          "type": "bytes32"
        },
        {
          "name": "_hand",
          "type": "uint8"
        }
      ],
      "name": "setHandPlayer2",
      "outputs": [],
      "payable": false,
      "stateMutability": "nonpayable",
      "type": "function",
      "signature": "0xd94142b1"
    },
    {
      "constant": false,
      "inputs": [
        {
          "name": "_gameId",
          "type": "bytes32"
        },
        {
          "name": "_hand",
          "type": "uint8"
        },
        {
          "name": "_passphrase",
          "type": "string"
        }
      ],
      "name": "judge",
      "outputs": [],
      "payable": true,
      "stateMutability": "payable",
      "type": "function",
      "signature": "0x70c376eb"
    },
    {
      "constant": true,
      "inputs": [
        {
          "name": "_gameId",
          "type": "bytes32"
        }
      ],
      "name": "getBet",
      "outputs": [
        {
          "name": "",
          "type": "uint256"
        }
      ],
      "payable": false,
      "stateMutability": "view",
      "type": "function",
      "signature": "0x37e8c09e"
    },
    {
      "constant": true,
      "inputs": [
        {
          "name": "_gameId",
          "type": "bytes32"
        }
      ],
      "name": "getPlayer1",
      "outputs": [
        {
          "name": "",
          "type": "address"
        }
      ],
      "payable": false,
      "stateMutability": "view",
      "type": "function",
      "signature": "0xdcba7988"
    },
    {
      "constant": true,
      "inputs": [
        {
          "name": "_gameId",
          "type": "bytes32"
        }
      ],
      "name": "getPlayer2",
      "outputs": [
        {
          "name": "",
          "type": "address"
        }
      ],
      "payable": false,
      "stateMutability": "view",
      "type": "function",
      "signature": "0x2d0bea78"
    },
    {
      "constant": true,
      "inputs": [
        {
          "name": "_gameId",
          "type": "bytes32"
        }
      ],
      "name": "getPlayer1hand",
      "outputs": [
        {
          "name": "",
          "type": "bytes32"
        }
      ],
      "payable": false,
      "stateMutability": "view",
      "type": "function",
      "signature": "0x81f84cfb"
    },
    {
      "constant": true,
      "inputs": [
        {
          "name": "_gameId",
          "type": "bytes32"
        }
      ],
      "name": "getPlayer2hand",
      "outputs": [
        {
          "name": "",
          "type": "uint8"
        }
      ],
      "payable": false,
      "stateMutability": "view",
      "type": "function",
      "signature": "0xeb706281"
    },
    {
      "constant": true,
      "inputs": [
        {
          "name": "_gameId",
          "type": "bytes32"
        }
      ],
      "name": "checkIfGameCompleted",
      "outputs": [
        {
          "name": "",
          "type": "bool"
        }
      ],
      "payable": false,
      "stateMutability": "view",
      "type": "function",
      "signature": "0x3d120a9f"
    }
  ],
  "bytecode": "0x608060405234801561001057600080fd5b506127af806100206000396000f3fe6080604052600436106100c5576000357c0100000000000000000000000000000000000000000000000000000000900463ffffffff1680632d0bea78146100ca57806337e8c09e146101455780633d120a9f146101945780633e86278a146101e757806370c376eb146102155780637255d729146102e757806381f84cfb146102f15780639701ad6f14610340578063bf4747661461036e578063d20c3af81461039c578063d94142b11461047b578063dcba7988146104c3578063eb7062811461053e575b600080fd5b3480156100d657600080fd5b50610103600480360360208110156100ed57600080fd5b8101908080359060200190929190505050610593565b604051808273ffffffffffffffffffffffffffffffffffffffff1673ffffffffffffffffffffffffffffffffffffffff16815260200191505060405180910390f35b34801561015157600080fd5b5061017e6004803603602081101561016857600080fd5b81019080803590602001909291905050506105d3565b6040518082815260200191505060405180910390f35b3480156101a057600080fd5b506101cd600480360360208110156101b757600080fd5b81019080803590602001909291905050506105f3565b604051808215151515815260200191505060405180910390f35b610213600480360360208110156101fd57600080fd5b8101908080359060200190929190505050610620565b005b6102e56004803603606081101561022b57600080fd5b8101908080359060200190929190803560ff1690602001909291908035906020019064010000000081111561025f57600080fd5b82018360208201111561027157600080fd5b8035906020019184600183028401116401000000008311171561029357600080fd5b91908080601f016020809104026020016040519081016040528093929190818152602001838380828437600081840152601f19601f820116905080830192505050505050509192919290505050610b56565b005b6102ef611456565b005b3480156102fd57600080fd5b5061032a6004803603602081101561031457600080fd5b81019080803590602001909291905050506117d8565b6040518082815260200191505060405180910390f35b61036c6004803603602081101561035657600080fd5b81019080803590602001909291905050506117f8565b005b61039a6004803603602081101561038457600080fd5b8101908080359060200190929190505050611ca3565b005b3480156103a857600080fd5b50610479600480360360608110156103bf57600080fd5b8101908080359060200190929190803560ff169060200190929190803590602001906401000000008111156103f357600080fd5b82018360208201111561040557600080fd5b8035906020019184600183028401116401000000008311171561042757600080fd5b91908080601f016020809104026020016040519081016040528093929190818152602001838380828437600081840152601f19601f820116905080830192505050505050509192919290505050611e89565b005b34801561048757600080fd5b506104c16004803603604081101561049e57600080fd5b8101908080359060200190929190803560ff169060200190929190505050612273565b005b3480156104cf57600080fd5b506104fc600480360360208110156104e657600080fd5b8101908080359060200190929190505050612692565b604051808273ffffffffffffffffffffffffffffffffffffffff1673ffffffffffffffffffffffffffffffffffffffff16815260200191505060405180910390f35b34801561054a57600080fd5b506105776004803603602081101561056157600080fd5b81019080803590602001909291905050506126d2565b604051808260ff1660ff16815260200191505060405180910390f35b60006001600083815260200190815260200160002060020160009054906101000a900473ffffffffffffffffffffffffffffffffffffffff169050919050565b600060016000838152602001908152602001600020600501549050919050565b60006001600083815260200190815260200160002060070160009054906101000a900460ff169050919050565b4260016000838152602001908152602001600020600801541115156106ad576040517f08c379a00000000000000000000000000000000000000000000000000000000081526004018080602001828103825260158152602001807f746f6f206561726c7920746f207769746864726177000000000000000000000081525060200191505060405180910390fd5b3373ffffffffffffffffffffffffffffffffffffffff166001600083815260200190815260200160002060010160009054906101000a900473ffffffffffffffffffffffffffffffffffffffff1673ffffffffffffffffffffffffffffffffffffffff16141515610786576040517f08c379a000000000000000000000000000000000000000000000000000000000815260040180806020018281038252601e8152602001807f6d73672e73656e646572206d75737420626520486f737420706c61796572000081525060200191505060405180910390fd5b600015156001600083815260200190815260200160002060070160009054906101000a900460ff161515141515610825576040517f08c379a000000000000000000000000000000000000000000000000000000000815260040180806020018281038252601e8152602001807f5468652067616d65206d757374206265206e6f7420636f6d706c65746564000081525060200191505060405180910390fd5b600015156001600083815260200190815260200160002060070160009054906101000a900460ff16151514151561085b57600080fd5b600073ffffffffffffffffffffffffffffffffffffffff166001600083815260200190815260200160002060020160009054906101000a900473ffffffffffffffffffffffffffffffffffffffff1673ffffffffffffffffffffffffffffffffffffffff16141561094a57600060016000838152602001908152602001600020600501549050600060016000848152602001908152602001600020600501819055503373ffffffffffffffffffffffffffffffffffffffff166108fc829081150290604051600060405180830381858888f19350505050158015610943573d6000803e3d6000fd5b5050610a54565b600060010260016000838152602001908152602001600020600301541415801561099a575060006001600083815260200190815260200160002060040160009054906101000a900460ff1660ff16145b15610a535760006001600083815260200190815260200160002060060154600160008481526020019081526020016000206005015401905060006001600084815260200190815260200160002060050181905550600060016000848152602001908152602001600020600601819055503373ffffffffffffffffffffffffffffffffffffffff166108fc829081150290604051600060405180830381858888f19350505050158015610a50573d6000803e3d6000fd5b50505b5b600180600083815260200190815260200160002060070160006101000a81548160ff0219169083151502179055506001600082815260200190815260200160002060020160009054906101000a900473ffffffffffffffffffffffffffffffffffffffff1673ffffffffffffffffffffffffffffffffffffffff166001600083815260200190815260200160002060010160009054906101000a900473ffffffffffffffffffffffffffffffffffffffff1673ffffffffffffffffffffffffffffffffffffffff167f3043b01b8a6505f94584186eca0cc6b080d534f072873aa6e1bf0904826e2a26836040518082815260200191505060405180910390a350565b8181604051602001808360ff1660ff167f010000000000000000000000000000000000000000000000000000000000000002815260010182805190602001908083835b602083101515610bbe5780518252602082019150602081019050602083039250610b99565b6001836020036101000a03801982511681845116808217855250505050505090500192505050604051602081830303815290604052805190602001206001600085815260200190815260200160002060030154141515610cd2576040517f08c379a00000000000000000000000000000000000000000000000000000000081526004018080602001828103825260468152602001807f596f75722068616e6420616e642070617373706872617365206861766520746f81526020017f206265207468652073616d6520617320746865206f6e657320796f752073756281526020017f6d6974746564000000000000000000000000000000000000000000000000000081525060600191505060405180910390fd5b600015156001600085815260200190815260200160002060070160009054906101000a900460ff161515141515610d71576040517f08c379a000000000000000000000000000000000000000000000000000000000815260040180806020018281038252601e8152602001807f5468652067616d65206d757374206265206e6f7420636f6d706c65746564000081525060200191505060405180910390fd5b600082905060006001600086815260200190815260200160002060040160009054906101000a900460ff1690507fffffffffffffffffffffffffffffffffffffffffffffffffffffffffffffffff81830360000b1480610dd65750600281830360000b145b15610f9d5760006001600087815260200190815260200160002060060154600160008881526020019081526020016000206005015401905060006001600088815260200190815260200160002060050181905550600060016000888152602001908152602001600020600601819055503373ffffffffffffffffffffffffffffffffffffffff166108fc829081150290604051600060405180830381858888f19350505050158015610e8c573d6000803e3d6000fd5b506001600087815260200190815260200160002060020160009054906101000a900473ffffffffffffffffffffffffffffffffffffffff1673ffffffffffffffffffffffffffffffffffffffff166001600088815260200190815260200160002060010160009054906101000a900473ffffffffffffffffffffffffffffffffffffffff1673ffffffffffffffffffffffffffffffffffffffff167f186c404fd094bcb3b092353e62554c27f67707d8af92598dec31c8ad047cb8ef886040518082815260200180602001828103825260148152602001807f54686520686f737420706c6179657220776f6e210000000000000000000000008152506020019250505060405180910390a350611421565b600181830360000b1480610fd557507ffffffffffffffffffffffffffffffffffffffffffffffffffffffffffffffffe81830360000b145b156111d25760006001600087815260200190815260200160002060060154600160008881526020019081526020016000206005015401905060006001600088815260200190815260200160002060050181905550600060016000888152602001908152602001600020600601819055506001600087815260200190815260200160002060020160009054906101000a900473ffffffffffffffffffffffffffffffffffffffff1673ffffffffffffffffffffffffffffffffffffffff166108fc829081150290604051600060405180830381858888f193505050501580156110c1573d6000803e3d6000fd5b506001600087815260200190815260200160002060020160009054906101000a900473ffffffffffffffffffffffffffffffffffffffff1673ffffffffffffffffffffffffffffffffffffffff166001600088815260200190815260200160002060010160009054906101000a900473ffffffffffffffffffffffffffffffffffffffff1673ffffffffffffffffffffffffffffffffffffffff167f186c404fd094bcb3b092353e62554c27f67707d8af92598dec31c8ad047cb8ef886040518082815260200180602001828103825260158152602001807f54686520677565737420706c6179657220776f6e2100000000000000000000008152506020019250505060405180910390a350611420565b600081830360000b141561141f5760006001600087815260200190815260200160002060050154905060006001600088815260200190815260200160002060060154905060006001600089815260200190815260200160002060050181905550600060016000898152602001908152602001600020600601819055503373ffffffffffffffffffffffffffffffffffffffff166108fc839081150290604051600060405180830381858888f19350505050158015611294573d6000803e3d6000fd5b506001600088815260200190815260200160002060020160009054906101000a900473ffffffffffffffffffffffffffffffffffffffff1673ffffffffffffffffffffffffffffffffffffffff166108fc829081150290604051600060405180830381858888f19350505050158015611311573d6000803e3d6000fd5b506001600088815260200190815260200160002060020160009054906101000a900473ffffffffffffffffffffffffffffffffffffffff1673ffffffffffffffffffffffffffffffffffffffff166001600089815260200190815260200160002060010160009054906101000a900473ffffffffffffffffffffffffffffffffffffffff1673ffffffffffffffffffffffffffffffffffffffff167f186c404fd094bcb3b092353e62554c27f67707d8af92598dec31c8ad047cb8ef8960405180828152602001806020018281038252600d8152602001807f49742077617320612064726177000000000000000000000000000000000000008152506020019250505060405180910390a350505b5b5b600180600087815260200190815260200160002060070160006101000a81548160ff0219169083151502179055505050505050565b61145e6126ff565b4333604051602001808381526020018273ffffffffffffffffffffffffffffffffffffffff1673ffffffffffffffffffffffffffffffffffffffff166c01000000000000000000000000028152601401925050506040516020818303038152906040528051906020012081600001818152505033816020019073ffffffffffffffffffffffffffffffffffffffff16908173ffffffffffffffffffffffffffffffffffffffff1681525050348160a001818152505060008160e0019015159081151581525050610258420181610100018181525050600081908060018154018082558091505090600182039060005260206000209060090201600090919290919091506000820151816000015560208201518160010160006101000a81548173ffffffffffffffffffffffffffffffffffffffff021916908373ffffffffffffffffffffffffffffffffffffffff16021790555060408201518160020160006101000a81548173ffffffffffffffffffffffffffffffffffffffff021916908373ffffffffffffffffffffffffffffffffffffffff1602179055506060820151816003015560808201518160040160006101000a81548160ff021916908360ff16021790555060a0820151816005015560c0820151816006015560e08201518160070160006101000a81548160ff02191690831515021790555061010082015181600801555050508060016000836000015181526020019081526020016000206000820151816000015560208201518160010160006101000a81548173ffffffffffffffffffffffffffffffffffffffff021916908373ffffffffffffffffffffffffffffffffffffffff16021790555060408201518160020160006101000a81548173ffffffffffffffffffffffffffffffffffffffff021916908373ffffffffffffffffffffffffffffffffffffffff1602179055506060820151816003015560808201518160040160006101000a81548160ff021916908360ff16021790555060a0820151816005015560c0820151816006015560e08201518160070160006101000a81548160ff02191690831515021790555061010082015181600801559050503373ffffffffffffffffffffffffffffffffffffffff167f1613115500aa9a8d00879a9b48ece773ba525bb97f700dc7d51e6786b3335e0d82600001516040518082815260200191505060405180910390a250565b600060016000838152602001908152602001600020600301549050919050565b426001600083815260200190815260200160002060080154111515611885576040517f08c379a00000000000000000000000000000000000000000000000000000000081526004018080602001828103825260158152602001807f746f6f206561726c7920746f207769746864726177000000000000000000000081525060200191505060405180910390fd5b3373ffffffffffffffffffffffffffffffffffffffff166001600083815260200190815260200160002060020160009054906101000a900473ffffffffffffffffffffffffffffffffffffffff1673ffffffffffffffffffffffffffffffffffffffff1614151561195e576040517f08c379a000000000000000000000000000000000000000000000000000000000815260040180806020018281038252601f8152602001807f6d73672e73656e646572206d75737420626520477565737420706c617965720081525060200191505060405180910390fd5b600015156001600083815260200190815260200160002060070160009054906101000a900460ff1615151415156119fd576040517f08c379a000000000000000000000000000000000000000000000000000000000815260040180806020018281038252601e8152602001807f5468652067616d65206d757374206265206e6f7420636f6d706c65746564000081525060200191505060405180910390fd5b600015156001600083815260200190815260200160002060070160009054906101000a900460ff161515141515611a3357600080fd5b3373ffffffffffffffffffffffffffffffffffffffff166001600083815260200190815260200160002060020160009054906101000a900473ffffffffffffffffffffffffffffffffffffffff1673ffffffffffffffffffffffffffffffffffffffff16148015611abd575060006001026001600083815260200190815260200160002060030154145b80611aef575060006001600083815260200190815260200160002060040160009054906101000a900460ff1660ff1614155b15611ba85760006001600083815260200190815260200160002060060154600160008481526020019081526020016000206005015401905060006001600084815260200190815260200160002060050181905550600060016000848152602001908152602001600020600601819055503373ffffffffffffffffffffffffffffffffffffffff166108fc829081150290604051600060405180830381858888f19350505050158015611ba5573d6000803e3d6000fd5b50505b600115156001600083815260200190815260200160002060070160009054906101000a905050506001600082815260200190815260200160002060020160009054906101000a900473ffffffffffffffffffffffffffffffffffffffff1673ffffffffffffffffffffffffffffffffffffffff166001600083815260200190815260200160002060010160009054906101000a900473ffffffffffffffffffffffffffffffffffffffff1673ffffffffffffffffffffffffffffffffffffffff167f3043b01b8a6505f94584186eca0cc6b080d534f072873aa6e1bf0904826e2a26836040518082815260200191505060405180910390a350565b6000600160008381526020019081526020016000209050600015158160070160009054906101000a900460ff161515141515611cde57600080fd5b348160050154141515611d7f576040517f08c379a00000000000000000000000000000000000000000000000000000000081526004018080602001828103825260278152602001807f626574207468652073616d6520616d6f756e7420617320746865206f70706f6e81526020017f656e74206265740000000000000000000000000000000000000000000000000081525060400191505060405180910390fd5b338160020160006101000a81548173ffffffffffffffffffffffffffffffffffffffff021916908373ffffffffffffffffffffffffffffffffffffffff160217905550610258420181600801819055503481600601819055508060020160009054906101000a900473ffffffffffffffffffffffffffffffffffffffff1673ffffffffffffffffffffffffffffffffffffffff168160010160009054906101000a900473ffffffffffffffffffffffffffffffffffffffff1673ffffffffffffffffffffffffffffffffffffffff167f8717dd2bb3618ea3a837995996526a2089c9a03bd081156a6583524378d9857d846040518082815260200191505060405180910390a35050565b3373ffffffffffffffffffffffffffffffffffffffff166001600085815260200190815260200160002060010160009054906101000a900473ffffffffffffffffffffffffffffffffffffffff1673ffffffffffffffffffffffffffffffffffffffff16141515611f62576040517f08c379a00000000000000000000000000000000000000000000000000000000081526004018080602001828103825260178152602001807f596f75206d75737420626520686f737420706c6179657200000000000000000081525060200191505060405180910390fd5b600015156001600085815260200190815260200160002060070160009054906101000a900460ff161515141515612001576040517f08c379a000000000000000000000000000000000000000000000000000000000815260040180806020018281038252601e8152602001807f5468652067616d65206d757374206265206e6f7420636f6d706c65746564000081525060200191505060405180910390fd5b6000600102600160008581526020019081526020016000206003015414151561202957600080fd5b60018260ff16148061203e575060028260ff16145b8061204c575060038260ff16145b15156120c0576040517f08c379a00000000000000000000000000000000000000000000000000000000081526004018080602001828103825260168152602001807f68616e64206d75737420626520312c2032206f7220330000000000000000000081525060200191505060405180910390fd5b8181604051602001808360ff1660ff167f010000000000000000000000000000000000000000000000000000000000000002815260010182805190602001908083835b6020831015156121285780518252602082019150602081019050602083039250612103565b6001836020036101000a03801982511681845116808217855250505050505090500192505050604051602081830303815290604052805190602001206001600085815260200190815260200160002060030181905550610258420160016000858152602001908152602001600020600801819055506001600084815260200190815260200160002060020160009054906101000a900473ffffffffffffffffffffffffffffffffffffffff1673ffffffffffffffffffffffffffffffffffffffff166001600085815260200190815260200160002060010160009054906101000a900473ffffffffffffffffffffffffffffffffffffffff1673ffffffffffffffffffffffffffffffffffffffff167fd3f474bf4e47bcca3c7da90a4bc1833c39bfcd8a804429f0b52db71f199c9834856040518082815260200191505060405180910390a3505050565b600060010260016000848152602001908152602001600020600301541415151561232b576040517f08c379a00000000000000000000000000000000000000000000000000000000081526004018080602001828103825260248152602001807f486f737420706c61796572206469646e74207365742074686569722068616e6481526020017f207965740000000000000000000000000000000000000000000000000000000081525060400191505060405180910390fd5b3373ffffffffffffffffffffffffffffffffffffffff166001600084815260200190815260200160002060020160009054906101000a900473ffffffffffffffffffffffffffffffffffffffff1673ffffffffffffffffffffffffffffffffffffffff16141515612404576040517f08c379a00000000000000000000000000000000000000000000000000000000081526004018080602001828103825260188152602001807f596f75206d75737420626520677565737420706c61796572000000000000000081525060200191505060405180910390fd5b600015156001600084815260200190815260200160002060070160009054906101000a900460ff1615151415156124a3576040517f08c379a000000000000000000000000000000000000000000000000000000000815260040180806020018281038252601e8152602001807f5468652067616d65206d757374206265206e6f7420636f6d706c65746564000081525060200191505060405180910390fd5b60006001600084815260200190815260200160002060040160009054906101000a900460ff1660ff161415156124d857600080fd5b60018160ff1614806124ed575060028160ff16145b806124fb575060038160ff16145b151561256f576040517f08c379a00000000000000000000000000000000000000000000000000000000081526004018080602001828103825260168152602001807f68616e64206d75737420626520312c2032206f7220330000000000000000000081525060200191505060405180910390fd5b806001600084815260200190815260200160002060040160006101000a81548160ff021916908360ff160217905550610258420160016000848152602001908152602001600020600801819055506001600083815260200190815260200160002060020160009054906101000a900473ffffffffffffffffffffffffffffffffffffffff1673ffffffffffffffffffffffffffffffffffffffff166001600084815260200190815260200160002060010160009054906101000a900473ffffffffffffffffffffffffffffffffffffffff1673ffffffffffffffffffffffffffffffffffffffff167fafaef8d34cdd59cd7fb81e41de7b86cdc1d6db66dc9385327d5c2ddfce79ee2e846040518082815260200191505060405180910390a35050565b60006001600083815260200190815260200160002060010160009054906101000a900473ffffffffffffffffffffffffffffffffffffffff169050919050565b60006001600083815260200190815260200160002060040160009054906101000a900460ff169050919050565b6101206040519081016040528060008019168152602001600073ffffffffffffffffffffffffffffffffffffffff168152602001600073ffffffffffffffffffffffffffffffffffffffff16815260200160008019168152602001600060ff168152602001600081526020016000815260200160001515815260200160008152509056fea165627a7a72305820c78a111df28e6e56274ca054982ec17fb2c99df719019a81dd72f9c717fd98830029",
  "source": "pragma solidity ^0.5.0;\n\ncontract Janken {\n\n\n    struct gameRoom {\n        bytes32 gameId;\n        address payable player1;\n        address payable player2;\n        bytes32 cryptedPlayer1hand;\n        uint8 player2hand;\n            // 1: \n            // 2: \n            // 3: \n        uint player1bet;\n        uint player2bet;\n        bool gameCompleted;\n        uint payBackTime;\n    }\n\n    gameRoom[] gameRooms;\n    mapping (bytes32 => gameRoom) gameRoomMap;\n\n    event gameCreated(\n            bytes32 gameId,\n            address indexed player1\n        );\n    event player2joined(\n            bytes32 gameId,\n            address indexed player1,\n            address indexed player2\n        );\n    event player1submitHand(\n            bytes32 gameId,\n            address indexed player1,\n            address indexed player2\n        );\n    event player2submitHand(\n            bytes32 gameId,\n            address indexed player1,\n            address indexed player2\n        );\n    event gameCompleted(\n            bytes32 gameId,\n            address indexed player1,\n            address indexed player2,\n            string result\n        );\n    event gameClosed(\n        bytes32 gameId,\n        address indexed player1,\n        address indexed player2\n        );\n\n\n    function createGame() public payable {\n        gameRoom memory gr;\n        gr.gameId = keccak256(abi.encodePacked(block.number, msg.sender));\n        gr.player1 = msg.sender;\n        gr.player1bet = msg.value;\n        gr.gameCompleted = false;\n        gr.payBackTime = now + 600;\n        gameRooms.push(gr);\n        gameRoomMap[gr.gameId] = gr;\n        emit gameCreated(gr.gameId, msg.sender);\n    }\n\n    function joinGame(bytes32 _gameId) public payable{\n        gameRoom storage gr = gameRoomMap[_gameId];\n        require(gr.gameCompleted == false);\n        require(gr.player1bet == msg.value, \"bet the same amount as the opponent bet\");\n        gr.player2 = msg.sender;\n        gr.payBackTime = now + 600;\n        gr.player2bet = msg.value;\n\n        emit player2joined(_gameId, gr.player1, gr.player2);\n    }\n\n    function getBackBetForPlayer1(bytes32 _gameId) public payable{\n        require(gameRoomMap[_gameId].payBackTime > now, \"too early to withdraw\");\n        require(gameRoomMap[_gameId].player1 == msg.sender, \"msg.sender must be Host player\");\n        require(gameRoomMap[_gameId].gameCompleted == false, \"The game must be not completed\");\n        require(gameRoomMap[_gameId].gameCompleted == false);\n\n        if (gameRoomMap[_gameId].player2 == address(0x0)){\n            // when no one joined the game, the host player get back money\n            uint backAmount = gameRoomMap[_gameId].player1bet;\n            gameRoomMap[_gameId].player1bet = 0;\n            msg.sender.transfer(backAmount);\n        }else if(gameRoomMap[_gameId].cryptedPlayer1hand != 0 && gameRoomMap[_gameId].player2hand == 0){\n            // when the guest player didn't submit their hand, the host player get the all bet\n            uint backAmount = gameRoomMap[_gameId].player1bet + gameRoomMap[_gameId].player2bet;\n            gameRoomMap[_gameId].player1bet = 0;\n            gameRoomMap[_gameId].player2bet = 0;\n            msg.sender.transfer(backAmount);\n        }\n\n        gameRoomMap[_gameId].gameCompleted = true;\n        emit gameClosed(_gameId, gameRoomMap[_gameId].player1, gameRoomMap[_gameId].player2);\n\n    }\n\n    function getBackBetForPlayer2(bytes32 _gameId) public payable{\n        require(gameRoomMap[_gameId].payBackTime > now, \"too early to withdraw\");\n        require(gameRoomMap[_gameId].player2 == msg.sender, \"msg.sender must be Guest player\");\n        require(gameRoomMap[_gameId].gameCompleted == false, \"The game must be not completed\");\n        require(gameRoomMap[_gameId].gameCompleted == false);\n\n        if((gameRoomMap[_gameId].player2 == msg.sender && gameRoomMap[_gameId].cryptedPlayer1hand == 0) || gameRoomMap[_gameId].player2hand != 0){\n            // when the host player didn't submit their hand or when the host player didn't judge, the guest player will get all the bet\n            uint backAmount = gameRoomMap[_gameId].player1bet + gameRoomMap[_gameId].player2bet;\n            gameRoomMap[_gameId].player1bet = 0;\n            gameRoomMap[_gameId].player2bet = 0;\n            msg.sender.transfer(backAmount);\n        }\n\n        gameRoomMap[_gameId].gameCompleted == true;\n        emit gameClosed(_gameId, gameRoomMap[_gameId].player1, gameRoomMap[_gameId].player2);\n    }\n\n\n    function setHandPlayer1(bytes32 _gameId, uint8 _hand, string memory _passphrase) public {\n        require(gameRoomMap[_gameId].player1 == msg.sender, \"You must be host player\");\n        require(gameRoomMap[_gameId].gameCompleted == false, \"The game must be not completed\");\n        require(gameRoomMap[_gameId].cryptedPlayer1hand == 0);\n        require(_hand == 1 || _hand == 2 || _hand == 3, \"hand must be 1, 2 or 3\");\n        gameRoomMap[_gameId].cryptedPlayer1hand\n            = keccak256(abi.encodePacked(_hand, _passphrase));\n        gameRoomMap[_gameId].payBackTime = now + 600;\n        emit player1submitHand(_gameId, gameRoomMap[_gameId].player1, gameRoomMap[_gameId].player2);\n    }\n\n    function setHandPlayer2(bytes32 _gameId, uint8 _hand) public{\n        require(gameRoomMap[_gameId].cryptedPlayer1hand != 0, \"Host player didnt set their hand yet\");\n        require(gameRoomMap[_gameId].player2 == msg.sender, \"You must be guest player\");\n        require(gameRoomMap[_gameId].gameCompleted == false, \"The game must be not completed\");\n        require(gameRoomMap[_gameId].player2hand == 0);\n        require(_hand == 1 || _hand == 2 || _hand == 3, \"hand must be 1, 2 or 3\");\n        gameRoomMap[_gameId].player2hand = _hand;\n        gameRoomMap[_gameId].payBackTime = now + 600;\n        emit player2submitHand(_gameId, gameRoomMap[_gameId].player1, gameRoomMap[_gameId].player2);\n    }\n\n    function judge(bytes32 _gameId, uint8 _hand, string memory _passphrase) public payable{\n        require(gameRoomMap[_gameId].cryptedPlayer1hand == keccak256(abi.encodePacked(_hand, _passphrase)), \"Your hand and passphrase have to be the same as the ones you submitted\");\n        require(gameRoomMap[_gameId].gameCompleted == false, \"The game must be not completed\");\n        int8 player1hand = int8(_hand);\n        int8 player2hand = int8(gameRoomMap[_gameId].player2hand);\n        if (player1hand - player2hand == -1 || player1hand - player2hand == 2){\n            //player1 wins\n            uint betAmount = gameRoomMap[_gameId].player1bet + gameRoomMap[_gameId].player2bet;\n            gameRoomMap[_gameId].player1bet = 0;\n            gameRoomMap[_gameId].player2bet = 0;\n            msg.sender.transfer(betAmount);\n            emit gameCompleted(_gameId, gameRoomMap[_gameId].player1, gameRoomMap[_gameId].player2, \"The host player won!\");\n        }else if(player1hand - player2hand == 1 || player1hand - player2hand == -2){\n            //player2 wins\n            uint betAmount = gameRoomMap[_gameId].player1bet + gameRoomMap[_gameId].player2bet;\n            gameRoomMap[_gameId].player1bet = 0;\n            gameRoomMap[_gameId].player2bet = 0;\n            gameRoomMap[_gameId].player2.transfer(betAmount);\n            emit gameCompleted(_gameId, gameRoomMap[_gameId].player1, gameRoomMap[_gameId].player2, \"The guest player won!\");\n        }else if(player1hand - player2hand == 0){\n            // draw\n            uint betAmountForPlayer1 = gameRoomMap[_gameId].player1bet;\n            uint betAmountForPlayer2 = gameRoomMap[_gameId].player2bet;\n            gameRoomMap[_gameId].player1bet = 0;\n            gameRoomMap[_gameId].player2bet = 0;\n            msg.sender.transfer(betAmountForPlayer1);\n            gameRoomMap[_gameId].player2.transfer(betAmountForPlayer2);\n            emit gameCompleted(_gameId, gameRoomMap[_gameId].player1, gameRoomMap[_gameId].player2, \"It was a draw\");\n        }\n\n        gameRoomMap[_gameId].gameCompleted = true;\n\n    }\n\n    function getBet(bytes32 _gameId) public view returns(uint){\n        return gameRoomMap[_gameId].player1bet;\n    }\n\n    function getPlayer1(bytes32 _gameId) public view returns(address){\n        return gameRoomMap[_gameId].player1;\n    }\n\n    function getPlayer2(bytes32 _gameId) public view returns(address){\n        return gameRoomMap[_gameId].player2;\n    }\n\n    function getPlayer1hand(bytes32 _gameId) public view returns(bytes32){\n        return gameRoomMap[_gameId].cryptedPlayer1hand;\n    }\n\n    function getPlayer2hand(bytes32 _gameId) public view returns(uint8){\n        return gameRoomMap[_gameId].player2hand;\n    }\n\n    function checkIfGameCompleted(bytes32 _gameId) public view returns(bool){\n        return gameRoomMap[_gameId].gameCompleted;\n    }\n\n}\n",
  "sourcePath": "/Users/akira/ethereum/janken/contracts/Janken.sol",
  "compiler": {
    "name": "solc",
    "version": "0.5.0+commit.1d4f565a.Emscripten.clang"
  },
  "schemaVersion": "3.0.2",
  "updatedAt": "2019-08-07T06:30:45.631Z",
  "devdoc": {
    "methods": {}
  },
  "userdoc": {
    "methods": {}
  }
}